{
  "abi": [
    {
      "inputs": [
        {
          "internalType": "string",
          "name": "_projectName",
          "type": "string"
        },
        {
          "internalType": "string",
          "name": "_githubRepoLink",
          "type": "string"
        },
        {
          "internalType": "uint256",
          "name": "_fundingGoal",
          "type": "uint256"
        },
        {
          "internalType": "string",
          "name": "_fundingFrequency",
          "type": "string"
        }
      ],
      "stateMutability": "nonpayable",
      "type": "constructor"
    },
    {
      "anonymous": false,
      "inputs": [
        {
          "indexed": false,
          "internalType": "uint256",
          "name": "totalFundsRaised",
          "type": "uint256"
        },
        {
          "indexed": false,
          "internalType": "string",
          "name": "frequency",
          "type": "string"
        },
        {
          "indexed": false,
          "internalType": "string",
          "name": "currentPeriod",
          "type": "string"
        }
      ],
      "name": "FundRingFundingGoalReached",
      "type": "event"
    },
    {
      "anonymous": false,
      "inputs": [
        {
          "indexed": true,
          "internalType": "address",
          "name": "contributor",
          "type": "address"
        },
        {
          "indexed": false,
          "internalType": "uint256",
          "name": "amountContributed",
          "type": "uint256"
        },
        {
          "indexed": false,
          "internalType": "uint256",
          "name": "totalFundsRaised",
          "type": "uint256"
        }
      ],
      "name": "FundRingFundsContributed",
      "type": "event"
    },
    {
      "anonymous": false,
      "inputs": [
        {
          "indexed": true,
          "internalType": "address",
          "name": "owner",
          "type": "address"
        },
        {
          "indexed": false,
          "internalType": "string",
          "name": "projectName",
          "type": "string"
        },
        {
          "indexed": false,
          "internalType": "string",
          "name": "githubRepoLink",
          "type": "string"
        },
        {
          "indexed": false,
          "internalType": "uint256",
          "name": "fundingGoal",
          "type": "uint256"
        },
        {
          "indexed": false,
          "internalType": "string",
          "name": "fundingFrequency",
          "type": "string"
        }
      ],
      "name": "FundRingProjectDeployed",
      "type": "event"
    },
    {
      "inputs": [],
      "name": "DT",
      "outputs": [
        {
          "internalType": "contract DateTime",
          "name": "",
          "type": "address"
        }
      ],
      "stateMutability": "view",
      "type": "function"
    },
    {
      "inputs": [],
      "name": "contributeFunds",
      "outputs": [],
      "stateMutability": "payable",
      "type": "function"
    },
    {
      "inputs": [],
      "name": "fundingFrequency",
      "outputs": [
        {
          "internalType": "string",
          "name": "",
          "type": "string"
        }
      ],
      "stateMutability": "view",
      "type": "function"
    },
    {
      "inputs": [],
      "name": "fundingGoal",
      "outputs": [
        {
          "internalType": "uint256",
          "name": "",
          "type": "uint256"
        }
      ],
      "stateMutability": "view",
      "type": "function"
    },
    {
      "inputs": [],
      "name": "getCurrentMonth",
      "outputs": [
        {
          "internalType": "string",
          "name": "",
          "type": "string"
        }
      ],
      "stateMutability": "view",
      "type": "function"
    },
    {
      "inputs": [],
      "name": "getCurrentYear",
      "outputs": [
        {
          "internalType": "uint256",
          "name": "",
          "type": "uint256"
        }
      ],
      "stateMutability": "view",
      "type": "function"
    },
    {
      "inputs": [],
      "name": "getFundingFrequency",
      "outputs": [
        {
          "internalType": "string",
          "name": "",
          "type": "string"
        }
      ],
      "stateMutability": "view",
      "type": "function"
    },
    {
      "inputs": [
        {
          "internalType": "string",
          "name": "month",
          "type": "string"
        }
      ],
      "name": "getFundsRaisedByMonth",
      "outputs": [
        {
          "internalType": "uint256",
          "name": "",
          "type": "uint256"
        }
      ],
      "stateMutability": "view",
      "type": "function"
    },
    {
      "inputs": [
        {
          "internalType": "uint256",
          "name": "year",
          "type": "uint256"
        }
      ],
      "name": "getFundsRaisedByYear",
      "outputs": [
        {
          "internalType": "uint256",
          "name": "",
          "type": "uint256"
        }
      ],
      "stateMutability": "view",
      "type": "function"
    },
    {
      "inputs": [],
      "name": "getTotalFundsRaised",
      "outputs": [
        {
          "internalType": "uint256",
          "name": "",
          "type": "uint256"
        }
      ],
      "stateMutability": "view",
      "type": "function"
    },
    {
      "inputs": [],
      "name": "githubRepoLink",
      "outputs": [
        {
          "internalType": "string",
          "name": "",
          "type": "string"
        }
      ],
      "stateMutability": "view",
      "type": "function"
    },
    {
      "inputs": [],
      "name": "isFundingComplete",
      "outputs": [
        {
          "internalType": "bool",
          "name": "",
          "type": "bool"
        }
      ],
      "stateMutability": "view",
      "type": "function"
    },
    {
      "inputs": [],
      "name": "projectName",
      "outputs": [
        {
          "internalType": "string",
          "name": "",
          "type": "string"
        }
      ],
      "stateMutability": "view",
      "type": "function"
    },
    {
      "inputs": [],
      "name": "projectOwner",
      "outputs": [
        {
          "internalType": "address",
          "name": "",
          "type": "address"
        }
      ],
      "stateMutability": "view",
      "type": "function"
    },
    {
      "inputs": [],
      "name": "totalFundsRaised",
      "outputs": [
        {
          "internalType": "uint256",
          "name": "",
          "type": "uint256"
        }
      ],
      "stateMutability": "view",
      "type": "function"
    },
    {
      "inputs": [],
      "name": "withdrawFunds",
      "outputs": [],
      "stateMutability": "nonpayable",
      "type": "function"
    }
  ],
  "bytecode": {
    "object": "0x60806040523480156200001157600080fd5b5060405162002ac738038062002ac7833981016040819052620000349162000886565b60008451116200008b5760405162461bcd60e51b815260206004820152601d60248201527f50726f6a656374206e616d652063616e6e6f7420626520656d7074792e00000060448201526064015b60405180910390fd5b6000835111620000e85760405162461bcd60e51b815260206004820152602160248201527f476974487562207265706f206c696e6b2063616e6e6f7420626520656d7074796044820152601760f91b606482015260840162000082565b600082116200014a5760405162461bcd60e51b815260206004820152602760248201527f46756e64696e6720676f616c206d75737420626520677265617465722074686160448201526637103d32b9379760c91b606482015260840162000082565b6200017c81604051806040016040528060088152602001676f6e652d74696d6560c01b8152506200038e60201b60201c565b80620001b45750620001b481604051806040016040528060078152602001666d6f6e74686c7960c81b8152506200038e60201b60201c565b80620001ed5750620001ed8160405180604001604052806008815260200167616e6e75616c6c7960c01b8152506200038e60201b60201c565b6200026f5760405162461bcd60e51b8152602060048201526044602482018190527f496e76616c69642066756e64696e67206672657175656e63792e205573652027908201527f6f6e652d74696d65272c20276d6f6e74686c79272c206f722027616e6e75616c606482015263363c939760e11b608482015260a40162000082565b6040516200027d90620006f8565b604051809103906000f0801580156200029a573d6000803e3d6000fd5b50600680546001600160a01b0319166001600160a01b03929092169190911790558351620002d090600090602087019062000706565b508251620002e690600190602086019062000706565b50600282905580516200030190600390602084019062000706565b50600580546001600160a01b031916331790556200031e620003eb565b80516200033491600a9160209091019062000706565b506200033f6200067f565b600b5560405133907f4ddfe4bdb424465ab8e208fac9d1819ff605816e85f4089e53c2bb915f0a6fe1906200037c9087908790879087906200094f565b60405180910390a25050505062000a4b565b600081604051602001620003a391906200099f565b6040516020818303038152906040528051906020012083604051602001620003cc91906200099f565b6040516020818303038152906040528051906020012014905092915050565b6006546040516328c92b4960e21b81524260048201526060916000916001600160a01b039091169063a324ad2490602401602060405180830381865afa1580156200043a573d6000803e3d6000fd5b505050506040513d601f19601f82011682018060405250810190620004609190620009bd565b60ff16905080600103620004915750506040805180820190915260078152666a616e7561727960c81b602082015290565b80600203620004be575050604080518082019091526008815267666562727561727960c01b602082015290565b80600303620004e85750506040805180820190915260058152640dac2e4c6d60db1b602082015290565b8060040362000512575050604080518082019091526005815264185c1c9a5b60da1b602082015290565b806005036200053a5750506040805180820190915260038152626d617960e81b602082015290565b80600603620005635750506040805180820190915260048152636a756e6560e01b602082015290565b806007036200058c5750506040805180820190915260048152636a756c7960e01b602082015290565b80600803620005b7575050604080518082019091526006815265185d59dd5cdd60d21b602082015290565b80600903620005e557505060408051808201909152600981526839b2b83a32b6b132b960b91b602082015290565b80600a036200061157505060408051808201909152600781526637b1ba37b132b960c91b602082015290565b80600b036200063e5750506040805180820190915260088152673737bb32b6b132b960c11b602082015290565b80600c036200066b5750506040805180820190915260088152673232b1b2b6b132b960c11b602082015290565b505060408051602081019091526000815290565b6006546040516392d6631360e01b81524260048201526000916001600160a01b0316906392d6631390602401602060405180830381865afa158015620006c9573d6000803e3d6000fd5b505050506040513d601f19601f82011682018060405250810190620006ef9190620009e9565b61ffff16905090565b610ce98062001dde83390190565b828054620007149062000a0f565b90600052602060002090601f01602090048101928262000738576000855562000783565b82601f106200075357805160ff191683800117855562000783565b8280016001018555821562000783579182015b828111156200078357825182559160200191906001019062000766565b506200079192915062000795565b5090565b5b8082111562000791576000815560010162000796565b634e487b7160e01b600052604160045260246000fd5b60005b83811015620007df578181015183820152602001620007c5565b83811115620007ef576000848401525b50505050565b600082601f8301126200080757600080fd5b81516001600160401b0380821115620008245762000824620007ac565b604051601f8301601f19908116603f011681019082821181831017156200084f576200084f620007ac565b816040528381528660208588010111156200086957600080fd5b6200087c846020830160208901620007c2565b9695505050505050565b600080600080608085870312156200089d57600080fd5b84516001600160401b0380821115620008b557600080fd5b620008c388838901620007f5565b95506020870151915080821115620008da57600080fd5b620008e888838901620007f5565b94506040870151935060608701519150808211156200090657600080fd5b506200091587828801620007f5565b91505092959194509250565b600081518084526200093b816020860160208601620007c2565b601f01601f19169290920160200192915050565b60808152600062000964608083018762000921565b828103602084015262000978818762000921565b9050846040840152828103606084015262000994818562000921565b979650505050505050565b60008251620009b3818460208701620007c2565b9190910192915050565b600060208284031215620009d057600080fd5b815160ff81168114620009e257600080fd5b9392505050565b600060208284031215620009fc57600080fd5b815161ffff81168114620009e257600080fd5b600181811c9082168062000a2457607f821691505b60208210810362000a4557634e487b7160e01b600052602260045260246000fd5b50919050565b6113838062000a5b6000396000f3fe6080604052600436106100f35760003560e01c80639b01d0c31161008a578063ddd1b67e11610059578063ddd1b67e14610252578063e2382bac14610267578063edaaeed214610287578063fa37c270146102a757600080fd5b80639b01d0c3146101d8578063a4475ce4146101fd578063c061db4d14610235578063ce41607a1461023d57600080fd5b806355f92754116100c657806355f927541461016b578063642adc2a146101805780637a3a0e84146101ad5780639a33e300146101c357600080fd5b80630c3e2d2d146100f857806324600fc31461011c57806333d8812a14610133578063427c0c7f14610155575b600080fd5b34801561010457600080fd5b506004545b6040519081526020015b60405180910390f35b34801561012857600080fd5b506101316102bc565b005b34801561013f57600080fd5b506101486103c1565b6040516101139190610f7c565b34801561016157600080fd5b5061010960045481565b34801561017757600080fd5b5061014861044f565b34801561018c57600080fd5b5061010961019b366004610f96565b60009081526009602052604090205490565b3480156101b957600080fd5b5061010960025481565b3480156101cf57600080fd5b506101486104e1565b3480156101e457600080fd5b506101ed6104ee565b6040519015158152602001610113565b34801561020957600080fd5b5060055461021d906001600160a01b031681565b6040516001600160a01b039091168152602001610113565b6101316106c8565b34801561024957600080fd5b506101096108e6565b34801561025e57600080fd5b5061014861095c565b34801561027357600080fd5b50610109610282366004610fc5565b610be1565b34801561029357600080fd5b5060065461021d906001600160a01b031681565b3480156102b357600080fd5b50610148610c09565b6005546001600160a01b0316331461032e5760405162461bcd60e51b815260206004820152602a60248201527f4f6e6c79207468652070726f6a656374206f776e65722063616e2077697468646044820152693930bb90333ab732399760b11b60648201526084015b60405180910390fd5b6103366104ee565b6103825760405162461bcd60e51b815260206004820152601d60248201527f46756e64696e6720676f616c206e6f742072656163686564207965742e0000006044820152606401610325565b6005546040516001600160a01b039091169081904780156108fc02916000818181858888f193505050501580156103bd573d6000803e3d6000fd5b5050565b600180546103ce90611076565b80601f01602080910402602001604051908101604052809291908181526020018280546103fa90611076565b80156104475780601f1061041c57610100808354040283529160200191610447565b820191906000526020600020905b81548152906001019060200180831161042a57829003601f168201915b505050505081565b60606003805461045e90611076565b80601f016020809104026020016040519081016040528092919081815260200182805461048a90611076565b80156104d75780601f106104ac576101008083540402835291602001916104d7565b820191906000526020600020905b8154815290600101906020018083116104ba57829003601f168201915b5050505050905090565b600080546103ce90611076565b60006105a36003805461050090611076565b80601f016020809104026020016040519081016040528092919081815260200182805461052c90611076565b80156105795780601f1061054e57610100808354040283529160200191610579565b820191906000526020600020905b81548152906001019060200180831161055c57829003601f168201915b5050505050604051806040016040528060078152602001666d6f6e74686c7960c81b815250610c16565b156105de5760006105b261095c565b90506002546008826040516105c791906110b0565b908152602001604051809103902054101591505090565b610692600380546105ee90611076565b80601f016020809104026020016040519081016040528092919081815260200182805461061a90611076565b80156106675780601f1061063c57610100808354040283529160200191610667565b820191906000526020600020905b81548152906001019060200180831161064a57829003601f168201915b505050505060405180604001604052806008815260200167616e6e75616c6c7960c01b815250610c16565b156106bc5760006106a16108e6565b60025460009182526009602052604090912054101592915050565b50600254600454101590565b600034116107285760405162461bcd60e51b815260206004820152602760248201527f596f75206d7573742073656e6420736f6d6520657468657220746f20636f6e746044820152663934b13aba329760c91b6064820152608401610325565b346004600082825461073a91906110e2565b92505081905550346007600360405161075391906110fa565b9081526020016040518091039020600082825461077091906110e2565b925050819055506107876003805461050090611076565b1561079a5761079534610c6f565b6107b8565b6107aa600380546105ee90611076565b156107b8576107b834610d11565b60045460405133917f7970d5610877da197cd13650512f50c79e8a0c7dfef1fdda059855429f7e8fc4916107f491348252602082015260400190565b60405180910390a26108046104ee565b156108e4576108196003805461050090611076565b15610865577f72791f8bba911fb1078e79f2c2aa680cf695fa5b88ee30ee1f99bcc711decd89600454600361084c61095c565b60405161085b939291906111e3565b60405180910390a1565b610875600380546105ee90611076565b156108b0577f72791f8bba911fb1078e79f2c2aa680cf695fa5b88ee30ee1f99bcc711decd89600454600361084c6108ab6108e6565b610d5b565b7f72791f8bba911fb1078e79f2c2aa680cf695fa5b88ee30ee1f99bcc711decd89600454600360405161085b929190611218565b565b6006546040516392d6631360e01b81524260048201526000916001600160a01b0316906392d6631390602401602060405180830381865afa15801561092f573d6000803e3d6000fd5b505050506040513d601f19601f82011682018060405250810190610953919061125a565b61ffff16905090565b6006546040516328c92b4960e21b81524260048201526060916000916001600160a01b039091169063a324ad2490602401602060405180830381865afa1580156109aa573d6000803e3d6000fd5b505050506040513d601f19601f820116820180604052508101906109ce919061127e565b60ff169050806001036109fe5750506040805180820190915260078152666a616e7561727960c81b602082015290565b80600203610a2a575050604080518082019091526008815267666562727561727960c01b602082015290565b80600303610a535750506040805180820190915260058152640dac2e4c6d60db1b602082015290565b80600403610a7c575050604080518082019091526005815264185c1c9a5b60da1b602082015290565b80600503610aa35750506040805180820190915260038152626d617960e81b602082015290565b80600603610acb5750506040805180820190915260048152636a756e6560e01b602082015290565b80600703610af35750506040805180820190915260048152636a756c7960e01b602082015290565b80600803610b1d575050604080518082019091526006815265185d59dd5cdd60d21b602082015290565b80600903610b4a57505060408051808201909152600981526839b2b83a32b6b132b960b91b602082015290565b80600a03610b7557505060408051808201909152600781526637b1ba37b132b960c91b602082015290565b80600b03610ba15750506040805180820190915260088152673737bb32b6b132b960c11b602082015290565b80600c03610bcd5750506040805180820190915260088152673232b1b2b6b132b960c11b602082015290565b505060408051602081019091526000815290565b6000600882604051610bf391906110b0565b9081526020016040518091039020549050919050565b600380546103ce90611076565b600081604051602001610c2991906110b0565b6040516020818303038152906040528051906020012083604051602001610c5091906110b0565b6040516020818303038152906040528051906020012014905092915050565b6000610c7961095c565b9050600881604051610c8b91906110b0565b908152602001604051809103902054600003610cda578051610cb490600a906020840190610e87565b5081600882604051610cc691906110b0565b908152604051908190036020019020555050565b81600882604051610ceb91906110b0565b90815260200160405180910390206000828254610d0891906110e2565b90915550505050565b6000610d1b6108e6565b9050600b54811115610d3d57600b819055600090815260096020526040902055565b60008181526009602052604081208054849290610d089084906110e2565b606081600003610d825750506040805180820190915260018152600360fc1b602082015290565b8160005b8115610dac5780610d96816112a1565b9150610da59050600a836112ba565b9150610d86565b60008167ffffffffffffffff811115610dc757610dc7610faf565b6040519080825280601f01601f191660200182016040528015610df1576020820181803683370190505b509050815b8515610e7e57610e076001826112dc565b90506000610e16600a886112ba565b610e2190600a6112f3565b610e2b90886112dc565b610e36906030611312565b905060008160f81b905080848481518110610e5357610e53611337565b60200101906001600160f81b031916908160001a905350610e75600a896112ba565b97505050610df6565b50949350505050565b828054610e9390611076565b90600052602060002090601f016020900481019282610eb55760008555610efb565b82601f10610ece57805160ff1916838001178555610efb565b82800160010185558215610efb579182015b82811115610efb578251825591602001919060010190610ee0565b50610f07929150610f0b565b5090565b5b80821115610f075760008155600101610f0c565b60005b83811015610f3b578181015183820152602001610f23565b83811115610f4a576000848401525b50505050565b60008151808452610f68816020860160208601610f20565b601f01601f19169290920160200192915050565b602081526000610f8f6020830184610f50565b9392505050565b600060208284031215610fa857600080fd5b5035919050565b634e487b7160e01b600052604160045260246000fd5b600060208284031215610fd757600080fd5b813567ffffffffffffffff80821115610fef57600080fd5b818401915084601f83011261100357600080fd5b81358181111561101557611015610faf565b604051601f8201601f19908116603f0116810190838211818310171561103d5761103d610faf565b8160405282815287602084870101111561105657600080fd5b826020860160208301376000928101602001929092525095945050505050565b600181811c9082168061108a57607f821691505b6020821081036110aa57634e487b7160e01b600052602260045260246000fd5b50919050565b600082516110c2818460208701610f20565b9190910192915050565b634e487b7160e01b600052601160045260246000fd5b600082198211156110f5576110f56110cc565b500190565b600080835461110881611076565b60018281168015611120576001811461113157611160565b60ff19841687528287019450611160565b8760005260208060002060005b858110156111575781548a82015290840190820161113e565b50505082870194505b50929695505050505050565b6000815461117981611076565b80855260206001838116801561119657600181146111aa576111d8565b60ff198516888401526040880195506111d8565b866000528260002060005b858110156111d05781548a82018601529083019084016111b5565b890184019650505b505050505092915050565b8381526060602082015260006111fc606083018561116c565b828103604084015261120e8185610f50565b9695505050505050565b828152606060208201526000611231606083018461116c565b8281036040938401526008815267616c6c2074696d6560c01b6020820152919091019392505050565b60006020828403121561126c57600080fd5b815161ffff81168114610f8f57600080fd5b60006020828403121561129057600080fd5b815160ff81168114610f8f57600080fd5b6000600182016112b3576112b36110cc565b5060010190565b6000826112d757634e487b7160e01b600052601260045260246000fd5b500490565b6000828210156112ee576112ee6110cc565b500390565b600081600019048311821515161561130d5761130d6110cc565b500290565b600060ff821660ff84168060ff0382111561132f5761132f6110cc565b019392505050565b634e487b7160e01b600052603260045260246000fdfea2646970667358221220e9c21648be9f2c89a4a779babbea4c433967630e65e05f4c327fc4724f471d6564736f6c634300080d0033608060405234801561001057600080fd5b50610cc9806100206000396000f3fe608060405234801561001057600080fd5b50600436106100ea5760003560e01c80639054bdec1161008c578063a6f0e57711610066578063a6f0e577146101e5578063b199993714610208578063b238ad0e1461021b578063fa93f8831461022e57600080fd5b80639054bdec1461019957806392d66313146101ac578063a324ad24146101d257600080fd5b806365c72840116100c857806365c728401461014d5780637f791833146101605780638aa001fc146101735780638c8d98a01461018657600080fd5b80633e239e1a146100ef5780634ac1ad781461011957806362ba96871461012c575b600080fd5b6101026100fd36600461092e565b610241565b60405160ff90911681526020015b60405180910390f35b61010261012736600461092e565b61026b565b61013f61013a36600461096f565b610287565b604051908152602001610110565b61010261015b36600461092e565b6102a2565b61013f61016e3660046109d4565b6102b7565b61010261018136600461092e565b6102d1565b61013f610194366004610a28565b6102de565b61013f6101a7366004610a6b565b6102f8565b6101bf6101ba36600461092e565b6104a9565b60405161ffff9091168152602001610110565b6101026101e036600461092e565b610599565b6101f86101f3366004610adf565b6105ae565b6040519015158152602001610110565b61013f61021636600461092e565b61060d565b610102610229366004610b01565b610652565b61010261023c36600461092e565b610719565b60006018603c6102518185610b60565b61025b9190610b60565b6102659190610b74565b92915050565b6000600761027c6201518084610b60565b61025b906004610b88565b6000610298868686868660006102f8565b9695505050505050565b60006102ad82610727565b6040015192915050565b60006102c8858585856000806102f8565b95945050505050565b6000610265603c83610b74565b60006102f084848460008060006102f8565b949350505050565b60006107b25b8761ffff168161ffff16101561035457610317816105ae565b156103315761032a6301e2850083610b88565b9150610342565b61033f6301e1338083610b88565b91505b8061034c81610ba0565b9150506102fe565b61035c61090f565b601f8152610369896105ae565b1561037a57601d6020820152610382565b601c60208201525b601f60408201819052601e606083018190526080830182905260a0830181905260c0830182905260e0830182905261010083018190526101208301829052610140830152610160820152600191505b8760ff168261ffff16101561043357806103ec600184610bd7565b61ffff16600c811061040057610400610bc1565b60200201516104159060ff1662015180610bfa565b61041f9084610b88565b92508161042b81610ba0565b9250506103d1565b61043e600188610c19565b61044e9060ff1662015180610bfa565b6104589084610b88565b925061046960ff8716610e10610bfa565b6104739084610b88565b925061048360ff8616603c610bfa565b61048d9084610b88565b925061049c60ff851684610b88565b9998505050505050505050565b60008080806104bc6301e1338086610b60565b6104c8906107b2610b88565b91506104d56107b261060d565b6104e28361ffff1661060d565b6104ec9190610c3c565b90506104fc816301e28500610bfa565b6105069084610b88565b9250806105156107b284610bd7565b61ffff166105239190610c3c565b610531906301e13380610bfa565b61053b9084610b88565b92505b84831115610591576105546101f3600184610bd7565b1561056e576105676301e2850084610c3c565b925061057f565b61057c6301e1338084610c3c565b92505b61058a600183610bd7565b915061053e565b509392505050565b60006105a482610727565b6020015192915050565b60006105bb600483610c53565b61ffff16156105cc57506000919050565b6105d7606483610c53565b61ffff16156105e857506001919050565b6105f461019083610c53565b61ffff161561060557506000919050565b506001919050565b600061061a600183610c3c565b915061062861019083610b60565b610633606484610b60565b61063e600485610b60565b6106489190610c3c565b6102659190610b88565b60008260ff166001148061066957508260ff166003145b8061067757508260ff166005145b8061068557508260ff166007145b8061069357508260ff166008145b806106a157508260ff16600a145b806106af57508260ff16600c145b156106bc5750601f610265565b8260ff16600414806106d157508260ff166006145b806106df57508260ff166009145b806106ed57508260ff16600b145b156106fa5750601e610265565b610703826105ae565b156107105750601d610265565b50601c92915050565b6000603c61025b8184610b60565b6040805160e081018252600080825260208201819052918101829052606081018290526080810182905260a0810182905260c0810182905290808061076b856104a9565b61ffff16845261077c6107b261060d565b845161078b9061ffff1661060d565b6107959190610c3c565b91506107a5826301e28500610bfa565b6107af9084610b88565b9250816107b285600001516107c49190610bd7565b61ffff166107d29190610c3c565b6107e0906301e13380610bfa565b6107ea9084610b88565b92506000600191505b600c8260ff161161085b5761080c828660000151610652565b61081c9060ff1662015180610bfa565b9050856108298583610b88565b111561083d5760ff8216602086015261085b565b6108478185610b88565b93508161085381610c74565b9250506107f3565b600191505b61087285602001518660000151610652565b60ff168260ff16116108c1578561088c8562015180610b88565b11156108a05760ff821660408601526108c1565b6108ad6201518085610b88565b9350816108b981610c74565b925050610860565b6108ca86610241565b60ff1660608601526108db86610719565b60ff1660808601526108ec866102d1565b60ff1660a08601526108fd8661026b565b60ff1660c08601525092949350505050565b604051806101800160405280600c906020820280368337509192915050565b60006020828403121561094057600080fd5b5035919050565b803561ffff8116811461095957600080fd5b919050565b803560ff8116811461095957600080fd5b600080600080600060a0868803121561098757600080fd5b61099086610947565b945061099e6020870161095e565b93506109ac6040870161095e565b92506109ba6060870161095e565b91506109c86080870161095e565b90509295509295909350565b600080600080608085870312156109ea57600080fd5b6109f385610947565b9350610a016020860161095e565b9250610a0f6040860161095e565b9150610a1d6060860161095e565b905092959194509250565b600080600060608486031215610a3d57600080fd5b610a4684610947565b9250610a546020850161095e565b9150610a626040850161095e565b90509250925092565b60008060008060008060c08789031215610a8457600080fd5b610a8d87610947565b9550610a9b6020880161095e565b9450610aa96040880161095e565b9350610ab76060880161095e565b9250610ac56080880161095e565b9150610ad360a0880161095e565b90509295509295509295565b600060208284031215610af157600080fd5b610afa82610947565b9392505050565b60008060408385031215610b1457600080fd5b610b1d8361095e565b9150610b2b60208401610947565b90509250929050565b634e487b7160e01b600052601260045260246000fd5b634e487b7160e01b600052601160045260246000fd5b600082610b6f57610b6f610b34565b500490565b600082610b8357610b83610b34565b500690565b60008219821115610b9b57610b9b610b4a565b500190565b600061ffff808316818103610bb757610bb7610b4a565b6001019392505050565b634e487b7160e01b600052603260045260246000fd5b600061ffff83811690831681811015610bf257610bf2610b4a565b039392505050565b6000816000190483118215151615610c1457610c14610b4a565b500290565b600060ff821660ff841680821015610c3357610c33610b4a565b90039392505050565b600082821015610c4e57610c4e610b4a565b500390565b600061ffff80841680610c6857610c68610b34565b92169190910692915050565b600060ff821660ff8103610c8a57610c8a610b4a565b6001019291505056fea264697066735822122093e28e6049805b2632032281c37c088346b4265f08955f2571d59d85aa9a749464736f6c634300080d0033",
    "linkReferences": {}
  },
  "methodIdentifiers": {
    "DT()": "edaaeed2",
    "contributeFunds()": "c061db4d",
    "fundingFrequency()": "fa37c270",
    "fundingGoal()": "7a3a0e84",
    "getCurrentMonth()": "ddd1b67e",
    "getCurrentYear()": "ce41607a",
    "getFundingFrequency()": "55f92754",
    "getFundsRaisedByMonth(string)": "e2382bac",
    "getFundsRaisedByYear(uint256)": "642adc2a",
    "getTotalFundsRaised()": "0c3e2d2d",
    "githubRepoLink()": "33d8812a",
    "isFundingComplete()": "9b01d0c3",
    "projectName()": "9a33e300",
    "projectOwner()": "a4475ce4",
    "totalFundsRaised()": "427c0c7f",
    "withdrawFunds()": "24600fc3"
  },
  "id": 1
}