{
  "abi": [
    {
      "inputs": [
        {
          "internalType": "string",
          "name": "_projectName",
          "type": "string"
        },
        {
          "internalType": "string",
          "name": "_githubRepoLink",
          "type": "string"
        },
        {
          "internalType": "uint256",
          "name": "_fundingGoal",
          "type": "uint256"
        },
        {
          "internalType": "string",
          "name": "_fundingFrequency",
          "type": "string"
        }
      ],
      "stateMutability": "nonpayable",
      "type": "constructor"
    },
    {
      "anonymous": false,
      "inputs": [
        {
          "indexed": false,
          "internalType": "uint256",
          "name": "totalFundsRaised",
          "type": "uint256"
        }
      ],
      "name": "FundRingFundingGoalReached",
      "type": "event"
    },
    {
      "anonymous": false,
      "inputs": [
        {
          "indexed": true,
          "internalType": "address",
          "name": "contributor",
          "type": "address"
        },
        {
          "indexed": false,
          "internalType": "uint256",
          "name": "amountContributed",
          "type": "uint256"
        },
        {
          "indexed": false,
          "internalType": "uint256",
          "name": "totalFundsRaised",
          "type": "uint256"
        }
      ],
      "name": "FundRingFundsContributed",
      "type": "event"
    },
    {
      "anonymous": false,
      "inputs": [
        {
          "indexed": true,
          "internalType": "address",
          "name": "owner",
          "type": "address"
        },
        {
          "indexed": false,
          "internalType": "string",
          "name": "projectName",
          "type": "string"
        },
        {
          "indexed": false,
          "internalType": "string",
          "name": "githubRepoLink",
          "type": "string"
        },
        {
          "indexed": false,
          "internalType": "uint256",
          "name": "fundingGoal",
          "type": "uint256"
        },
        {
          "indexed": false,
          "internalType": "string",
          "name": "fundingFrequency",
          "type": "string"
        }
      ],
      "name": "FundRingProjectDeployed",
      "type": "event"
    },
    {
      "inputs": [],
      "name": "contributeFunds",
      "outputs": [],
      "stateMutability": "payable",
      "type": "function"
    },
    {
      "inputs": [],
      "name": "fundingFrequency",
      "outputs": [
        {
          "internalType": "string",
          "name": "",
          "type": "string"
        }
      ],
      "stateMutability": "view",
      "type": "function"
    },
    {
      "inputs": [],
      "name": "fundingGoal",
      "outputs": [
        {
          "internalType": "uint256",
          "name": "",
          "type": "uint256"
        }
      ],
      "stateMutability": "view",
      "type": "function"
    },
    {
      "inputs": [],
      "name": "getFundingFrequency",
      "outputs": [
        {
          "internalType": "string",
          "name": "",
          "type": "string"
        }
      ],
      "stateMutability": "view",
      "type": "function"
    },
    {
      "inputs": [],
      "name": "getTotalFundsRaised",
      "outputs": [
        {
          "internalType": "uint256",
          "name": "",
          "type": "uint256"
        }
      ],
      "stateMutability": "view",
      "type": "function"
    },
    {
      "inputs": [],
      "name": "githubRepoLink",
      "outputs": [
        {
          "internalType": "string",
          "name": "",
          "type": "string"
        }
      ],
      "stateMutability": "view",
      "type": "function"
    },
    {
      "inputs": [],
      "name": "isFundingComplete",
      "outputs": [
        {
          "internalType": "bool",
          "name": "",
          "type": "bool"
        }
      ],
      "stateMutability": "view",
      "type": "function"
    },
    {
      "inputs": [],
      "name": "projectName",
      "outputs": [
        {
          "internalType": "string",
          "name": "",
          "type": "string"
        }
      ],
      "stateMutability": "view",
      "type": "function"
    },
    {
      "inputs": [],
      "name": "projectOwner",
      "outputs": [
        {
          "internalType": "address",
          "name": "",
          "type": "address"
        }
      ],
      "stateMutability": "view",
      "type": "function"
    },
    {
      "inputs": [],
      "name": "totalFundsRaised",
      "outputs": [
        {
          "internalType": "uint256",
          "name": "",
          "type": "uint256"
        }
      ],
      "stateMutability": "view",
      "type": "function"
    },
    {
      "inputs": [],
      "name": "withdrawFunds",
      "outputs": [],
      "stateMutability": "nonpayable",
      "type": "function"
    }
  ],
  "bytecode": {
    "object": "0x60806040523480156200001157600080fd5b50604051620011ca380380620011ca83398101604081905262000034916200055c565b60008451116200008b5760405162461bcd60e51b815260206004820152601d60248201527f50726f6a656374206e616d652063616e6e6f7420626520656d7074792e00000060448201526064015b60405180910390fd5b6000835111620000e85760405162461bcd60e51b815260206004820152602160248201527f476974487562207265706f206c696e6b2063616e6e6f7420626520656d7074796044820152601760f91b606482015260840162000082565b600082116200014a5760405162461bcd60e51b815260206004820152602760248201527f46756e64696e6720676f616c206d75737420626520677265617465722074686160448201526637103d32b9379760c91b606482015260840162000082565b6200017c81604051806040016040528060088152602001676f6e652d74696d6560c01b8152506200032e60201b60201c565b80620001b45750620001b481604051806040016040528060078152602001666d6f6e74686c7960c81b8152506200032e60201b60201c565b80620001ed5750620001ed8160405180604001604052806008815260200167616e6e75616c6c7960c01b8152506200032e60201b60201c565b6200026f5760405162461bcd60e51b8152602060048201526044602482018190527f496e76616c69642066756e64696e67206672657175656e63792e205573652027908201527f6f6e652d74696d65272c20276d6f6e74686c79272c206f722027616e6e75616c606482015263363c939760e11b608482015260a40162000082565b835162000284906000906020870190620003dc565b5082516200029a906001906020860190620003dc565b5060028290558051620002b5906003906020840190620003dc565b50600580546001600160a01b03191633179055620002d26200038b565b600955620002df620003bc565b600a5560405133907f4ddfe4bdb424465ab8e208fac9d1819ff605816e85f4089e53c2bb915f0a6fe1906200031c90879087908790879062000625565b60405180910390a2505050506200073a565b60008160405160200162000343919062000675565b60405160208183030381529060405280519060200120836040516020016200036c919062000675565b6040516020818303038152906040528051906020012014905092915050565b6000601e6200039e6201518042620006a9565b620003aa9190620006c0565b620003b7906001620006d7565b905090565b600061016d620003d06201518042620006a9565b620003b79190620006a9565b828054620003ea90620006fe565b90600052602060002090601f0160209004810192826200040e576000855562000459565b82601f106200042957805160ff191683800117855562000459565b8280016001018555821562000459579182015b82811115620004595782518255916020019190600101906200043c565b50620004679291506200046b565b5090565b5b808211156200046757600081556001016200046c565b634e487b7160e01b600052604160045260246000fd5b60005b83811015620004b55781810151838201526020016200049b565b83811115620004c5576000848401525b50505050565b600082601f830112620004dd57600080fd5b81516001600160401b0380821115620004fa57620004fa62000482565b604051601f8301601f19908116603f0116810190828211818310171562000525576200052562000482565b816040528381528660208588010111156200053f57600080fd5b6200055284602083016020890162000498565b9695505050505050565b600080600080608085870312156200057357600080fd5b84516001600160401b03808211156200058b57600080fd5b6200059988838901620004cb565b95506020870151915080821115620005b057600080fd5b620005be88838901620004cb565b9450604087015193506060870151915080821115620005dc57600080fd5b50620005eb87828801620004cb565b91505092959194509250565b600081518084526200061181602086016020860162000498565b601f01601f19169290920160200192915050565b6080815260006200063a6080830187620005f7565b82810360208401526200064e8187620005f7565b905084604084015282810360608401526200066a8185620005f7565b979650505050505050565b600082516200068981846020870162000498565b9190910192915050565b634e487b7160e01b600052601260045260246000fd5b600082620006bb57620006bb62000693565b500490565b600082620006d257620006d262000693565b500690565b60008219821115620006f957634e487b7160e01b600052601160045260246000fd5b500190565b600181811c908216806200071357607f821691505b6020821081036200073457634e487b7160e01b600052602260045260246000fd5b50919050565b610a80806200074a6000396000f3fe60806040526004361061009c5760003560e01c80637a3a0e84116100645780637a3a0e84146101295780639a33e3001461013f5780639b01d0c314610154578063a4475ce414610179578063c061db4d146101b1578063fa37c270146101b957600080fd5b80630c3e2d2d146100a157806324600fc3146100c557806333d8812a146100dc578063427c0c7f146100fe57806355f9275414610114575b600080fd5b3480156100ad57600080fd5b506004545b6040519081526020015b60405180910390f35b3480156100d157600080fd5b506100da6101ce565b005b3480156100e857600080fd5b506100f16102d3565b6040516100bc91906108c2565b34801561010a57600080fd5b506100b260045481565b34801561012057600080fd5b506100f1610361565b34801561013557600080fd5b506100b260025481565b34801561014b57600080fd5b506100f16103f3565b34801561016057600080fd5b50610169610400565b60405190151581526020016100bc565b34801561018557600080fd5b50600554610199906001600160a01b031681565b6040516001600160a01b0390911681526020016100bc565b6100da6105c9565b3480156101c557600080fd5b506100f1610748565b6005546001600160a01b031633146102405760405162461bcd60e51b815260206004820152602a60248201527f4f6e6c79207468652070726f6a656374206f776e65722063616e2077697468646044820152693930bb90333ab732399760b11b60648201526084015b60405180910390fd5b610248610400565b6102945760405162461bcd60e51b815260206004820152601d60248201527f46756e64696e6720676f616c206e6f742072656163686564207965742e0000006044820152606401610237565b6005546040516001600160a01b039091169081904780156108fc02916000818181858888f193505050501580156102cf573d6000803e3d6000fd5b5050565b600180546102e0906108f5565b80601f016020809104026020016040519081016040528092919081815260200182805461030c906108f5565b80156103595780601f1061032e57610100808354040283529160200191610359565b820191906000526020600020905b81548152906001019060200180831161033c57829003601f168201915b505050505081565b606060038054610370906108f5565b80601f016020809104026020016040519081016040528092919081815260200182805461039c906108f5565b80156103e95780601f106103be576101008083540402835291602001916103e9565b820191906000526020600020905b8154815290600101906020018083116103cc57829003601f168201915b5050505050905090565b600080546102e0906108f5565b60006104b560038054610412906108f5565b80601f016020809104026020016040519081016040528092919081815260200182805461043e906108f5565b801561048b5780601f106104605761010080835404028352916020019161048b565b820191906000526020600020905b81548152906001019060200180831161046e57829003601f168201915b5050505050604051806040016040528060078152602001666d6f6e74686c7960c81b815250610755565b156104df5760006104c46107ae565b60025460009182526007602052604090912054101592915050565b610593600380546104ef906108f5565b80601f016020809104026020016040519081016040528092919081815260200182805461051b906108f5565b80156105685780601f1061053d57610100808354040283529160200191610568565b820191906000526020600020905b81548152906001019060200180831161054b57829003601f168201915b505050505060405180604001604052806008815260200167616e6e75616c6c7960c01b815250610755565b156105bd5760006105a26107d9565b60025460009182526008602052604090912054101592915050565b50600254600454101590565b600034116106295760405162461bcd60e51b815260206004820152602760248201527f596f75206d7573742073656e6420736f6d6520657468657220746f20636f6e746044820152663934b13aba329760c91b6064820152608401610237565b346004600082825461063b919061092f565b9250508190555034600660036040516106549190610955565b90815260200160405180910390206000828254610671919061092f565b9250508190555061068860038054610412906108f5565b1561069b57610696346107f5565b6106b9565b6106ab600380546104ef906108f5565b156106b9576106b934610848565b60045460405133917f7970d5610877da197cd13650512f50c79e8a0c7dfef1fdda059855429f7e8fc4916106f591348252602082015260400190565b60405180910390a2610705610400565b15610746577f58727735131bf4371ad6eabb4e4c88f9db83312a259e29ad4ab14530b6abb02660045460405161073d91815260200190565b60405180910390a15b565b600380546102e0906108f5565b60008160405160200161076891906109f0565b604051602081830303815290604052805190602001208360405160200161078f91906109f0565b6040516020818303038152906040528051906020012014905092915050565b6000601e6107bf6201518042610a22565b6107c99190610a36565b6107d490600161092f565b905090565b600061016d6107eb6201518042610a22565b6107d49190610a22565b60006107ff6107ae565b9050600954811115610821576009819055600090815260076020526040902055565b6000818152600760205260408120805484929061083f90849061092f565b90915550505050565b60006108526107d9565b9050600a5481111561087457600a819055600090815260086020526040902055565b6000818152600860205260408120805484929061083f90849061092f565b60005b838110156108ad578181015183820152602001610895565b838111156108bc576000848401525b50505050565b60208152600082518060208401526108e1816040850160208701610892565b601f01601f19169190910160400192915050565b600181811c9082168061090957607f821691505b60208210810361092957634e487b7160e01b600052602260045260246000fd5b50919050565b6000821982111561095057634e487b7160e01b600052601160045260246000fd5b500190565b600080835481600182811c91508083168061097157607f831692505b6020808410820361099057634e487b7160e01b86526022600452602486fd5b8180156109a457600181146109b5576109e2565b60ff198616895284890196506109e2565b60008a81526020902060005b868110156109da5781548b8201529085019083016109c1565b505084890196505b509498975050505050505050565b60008251610a02818460208701610892565b9190910192915050565b634e487b7160e01b600052601260045260246000fd5b600082610a3157610a31610a0c565b500490565b600082610a4557610a45610a0c565b50069056fea264697066735822122037c6a04bd04ee2aa89d21cb84b3feaf076b28ba59ce012b877362fc61dee000a64736f6c634300080d0033",
    "linkReferences": {}
  },
  "methodIdentifiers": {
    "contributeFunds()": "c061db4d",
    "fundingFrequency()": "fa37c270",
    "fundingGoal()": "7a3a0e84",
    "getFundingFrequency()": "55f92754",
    "getTotalFundsRaised()": "0c3e2d2d",
    "githubRepoLink()": "33d8812a",
    "isFundingComplete()": "9b01d0c3",
    "projectName()": "9a33e300",
    "projectOwner()": "a4475ce4",
    "totalFundsRaised()": "427c0c7f",
    "withdrawFunds()": "24600fc3"
  },
  "id": 0
}