{
  "abi": [
    {
      "inputs": [],
      "stateMutability": "nonpayable",
      "type": "constructor"
    },
    {
      "anonymous": false,
      "inputs": [
        {
          "indexed": false,
          "internalType": "uint256",
          "name": "totalFundsRaised",
          "type": "uint256"
        }
      ],
      "name": "FundingGoalReached",
      "type": "event"
    },
    {
      "anonymous": false,
      "inputs": [
        {
          "indexed": true,
          "internalType": "address",
          "name": "contributor",
          "type": "address"
        },
        {
          "indexed": false,
          "internalType": "uint256",
          "name": "amountContributed",
          "type": "uint256"
        },
        {
          "indexed": false,
          "internalType": "uint256",
          "name": "totalFundsRaised",
          "type": "uint256"
        }
      ],
      "name": "FundsContributed",
      "type": "event"
    },
    {
      "anonymous": false,
      "inputs": [
        {
          "indexed": true,
          "internalType": "address",
          "name": "owner",
          "type": "address"
        },
        {
          "indexed": false,
          "internalType": "string",
          "name": "projectName",
          "type": "string"
        },
        {
          "indexed": false,
          "internalType": "string",
          "name": "githubRepoLink",
          "type": "string"
        },
        {
          "indexed": false,
          "internalType": "uint256",
          "name": "fundingGoal",
          "type": "uint256"
        },
        {
          "indexed": false,
          "internalType": "string",
          "name": "fundingFrequency",
          "type": "string"
        }
      ],
      "name": "ProjectDeployed",
      "type": "event"
    },
    {
      "inputs": [],
      "name": "contributeFunds",
      "outputs": [],
      "stateMutability": "payable",
      "type": "function"
    },
    {
      "inputs": [],
      "name": "fundingFrequency",
      "outputs": [
        {
          "internalType": "string",
          "name": "",
          "type": "string"
        }
      ],
      "stateMutability": "view",
      "type": "function"
    },
    {
      "inputs": [],
      "name": "fundingGoal",
      "outputs": [
        {
          "internalType": "uint256",
          "name": "",
          "type": "uint256"
        }
      ],
      "stateMutability": "view",
      "type": "function"
    },
    {
      "inputs": [],
      "name": "getFundingFrequency",
      "outputs": [
        {
          "internalType": "string",
          "name": "",
          "type": "string"
        }
      ],
      "stateMutability": "view",
      "type": "function"
    },
    {
      "inputs": [],
      "name": "getTotalFundsRaised",
      "outputs": [
        {
          "internalType": "uint256",
          "name": "",
          "type": "uint256"
        }
      ],
      "stateMutability": "view",
      "type": "function"
    },
    {
      "inputs": [],
      "name": "githubRepoLink",
      "outputs": [
        {
          "internalType": "string",
          "name": "",
          "type": "string"
        }
      ],
      "stateMutability": "view",
      "type": "function"
    },
    {
      "inputs": [],
      "name": "isFundingComplete",
      "outputs": [
        {
          "internalType": "bool",
          "name": "",
          "type": "bool"
        }
      ],
      "stateMutability": "view",
      "type": "function"
    },
    {
      "inputs": [],
      "name": "projectName",
      "outputs": [
        {
          "internalType": "string",
          "name": "",
          "type": "string"
        }
      ],
      "stateMutability": "view",
      "type": "function"
    },
    {
      "inputs": [],
      "name": "projectOwner",
      "outputs": [
        {
          "internalType": "address",
          "name": "",
          "type": "address"
        }
      ],
      "stateMutability": "view",
      "type": "function"
    },
    {
      "inputs": [],
      "name": "totalFundsRaised",
      "outputs": [
        {
          "internalType": "uint256",
          "name": "",
          "type": "uint256"
        }
      ],
      "stateMutability": "view",
      "type": "function"
    },
    {
      "inputs": [],
      "name": "withdrawFunds",
      "outputs": [],
      "stateMutability": "nonpayable",
      "type": "function"
    }
  ],
  "bytecode": {
    "object": "0x60806040523480156200001157600080fd5b5060006040518060400160405280600981526020016846756e642052696e6760b81b81525090506000604051806060016040528060268152602001620010d1602691396040805180820190915260078152666d6f6e74686c7960c81b60208201528351919250681043561a882930000091620000d45760405162461bcd60e51b815260206004820152601d60248201527f50726f6a656374206e616d652063616e6e6f7420626520656d7074792e00000060448201526064015b60405180910390fd5b6000835111620001315760405162461bcd60e51b815260206004820152602160248201527f476974487562207265706f206c696e6b2063616e6e6f7420626520656d7074796044820152601760f91b6064820152608401620000cb565b60008211620001935760405162461bcd60e51b815260206004820152602760248201527f46756e64696e6720676f616c206d75737420626520677265617465722074686160448201526637103d32b9379760c91b6064820152608401620000cb565b620001c581604051806040016040528060088152602001676f6e652d74696d6560c01b8152506200037760201b60201c565b80620001fd5750620001fd81604051806040016040528060078152602001666d6f6e74686c7960c81b8152506200037760201b60201c565b80620002365750620002368160405180604001604052806008815260200167616e6e75616c6c7960c01b8152506200037760201b60201c565b620002b85760405162461bcd60e51b8152602060048201526044602482018190527f496e76616c69642066756e64696e67206672657175656e63792e205573652027908201527f6f6e652d74696d65272c20276d6f6e74686c79272c206f722027616e6e75616c606482015263363c939760e11b608482015260a401620000cb565b8351620002cd90600090602087019062000425565b508251620002e390600190602086019062000425565b5060028290558051620002fe90600390602084019062000425565b50600580546001600160a01b031916331790556200031b620003d4565b6009556200032862000405565b600a5560405133907ff55ddb3e38cd5a3cfd7df57e92c547524079f9495f7971bbba1efbced1abfa0990620003659087908790879087906200052c565b60405180910390a25050505062000641565b6000816040516020016200038c91906200057c565b6040516020818303038152906040528051906020012083604051602001620003b591906200057c565b6040516020818303038152906040528051906020012014905092915050565b6000601e620003e76201518042620005b0565b620003f39190620005c7565b62000400906001620005de565b905090565b600061016d620004196201518042620005b0565b620004009190620005b0565b828054620004339062000605565b90600052602060002090601f016020900481019282620004575760008555620004a2565b82601f106200047257805160ff1916838001178555620004a2565b82800160010185558215620004a2579182015b82811115620004a257825182559160200191906001019062000485565b50620004b0929150620004b4565b5090565b5b80821115620004b05760008155600101620004b5565b60005b83811015620004e8578181015183820152602001620004ce565b83811115620004f8576000848401525b50505050565b6000815180845262000518816020860160208601620004cb565b601f01601f19169290920160200192915050565b608081526000620005416080830187620004fe565b8281036020840152620005558187620004fe565b90508460408401528281036060840152620005718185620004fe565b979650505050505050565b6000825162000590818460208701620004cb565b9190910192915050565b634e487b7160e01b600052601260045260246000fd5b600082620005c257620005c26200059a565b500490565b600082620005d957620005d96200059a565b500690565b600082198211156200060057634e487b7160e01b600052601160045260246000fd5b500190565b600181811c908216806200061a57607f821691505b6020821081036200063b57634e487b7160e01b600052602260045260246000fd5b50919050565b610a8080620006516000396000f3fe60806040526004361061009c5760003560e01c80637a3a0e84116100645780637a3a0e84146101295780639a33e3001461013f5780639b01d0c314610154578063a4475ce414610179578063c061db4d146101b1578063fa37c270146101b957600080fd5b80630c3e2d2d146100a157806324600fc3146100c557806333d8812a146100dc578063427c0c7f146100fe57806355f9275414610114575b600080fd5b3480156100ad57600080fd5b506004545b6040519081526020015b60405180910390f35b3480156100d157600080fd5b506100da6101ce565b005b3480156100e857600080fd5b506100f16102d3565b6040516100bc91906108c2565b34801561010a57600080fd5b506100b260045481565b34801561012057600080fd5b506100f1610361565b34801561013557600080fd5b506100b260025481565b34801561014b57600080fd5b506100f16103f3565b34801561016057600080fd5b50610169610400565b60405190151581526020016100bc565b34801561018557600080fd5b50600554610199906001600160a01b031681565b6040516001600160a01b0390911681526020016100bc565b6100da6105c9565b3480156101c557600080fd5b506100f1610748565b6005546001600160a01b031633146102405760405162461bcd60e51b815260206004820152602a60248201527f4f6e6c79207468652070726f6a656374206f776e65722063616e2077697468646044820152693930bb90333ab732399760b11b60648201526084015b60405180910390fd5b610248610400565b6102945760405162461bcd60e51b815260206004820152601d60248201527f46756e64696e6720676f616c206e6f742072656163686564207965742e0000006044820152606401610237565b6005546040516001600160a01b039091169081904780156108fc02916000818181858888f193505050501580156102cf573d6000803e3d6000fd5b5050565b600180546102e0906108f5565b80601f016020809104026020016040519081016040528092919081815260200182805461030c906108f5565b80156103595780601f1061032e57610100808354040283529160200191610359565b820191906000526020600020905b81548152906001019060200180831161033c57829003601f168201915b505050505081565b606060038054610370906108f5565b80601f016020809104026020016040519081016040528092919081815260200182805461039c906108f5565b80156103e95780601f106103be576101008083540402835291602001916103e9565b820191906000526020600020905b8154815290600101906020018083116103cc57829003601f168201915b5050505050905090565b600080546102e0906108f5565b60006104b560038054610412906108f5565b80601f016020809104026020016040519081016040528092919081815260200182805461043e906108f5565b801561048b5780601f106104605761010080835404028352916020019161048b565b820191906000526020600020905b81548152906001019060200180831161046e57829003601f168201915b5050505050604051806040016040528060078152602001666d6f6e74686c7960c81b815250610755565b156104df5760006104c46107ae565b60025460009182526007602052604090912054101592915050565b610593600380546104ef906108f5565b80601f016020809104026020016040519081016040528092919081815260200182805461051b906108f5565b80156105685780601f1061053d57610100808354040283529160200191610568565b820191906000526020600020905b81548152906001019060200180831161054b57829003601f168201915b505050505060405180604001604052806008815260200167616e6e75616c6c7960c01b815250610755565b156105bd5760006105a26107d9565b60025460009182526008602052604090912054101592915050565b50600254600454101590565b600034116106295760405162461bcd60e51b815260206004820152602760248201527f596f75206d7573742073656e6420736f6d6520657468657220746f20636f6e746044820152663934b13aba329760c91b6064820152608401610237565b346004600082825461063b919061092f565b9250508190555034600660036040516106549190610955565b90815260200160405180910390206000828254610671919061092f565b9250508190555061068860038054610412906108f5565b1561069b57610696346107f5565b6106b9565b6106ab600380546104ef906108f5565b156106b9576106b934610848565b60045460405133917f475d89165ab46a3bc7038ba552b468b2c8e81e0495e7f055fe4df937fa86a56e916106f591348252602082015260400190565b60405180910390a2610705610400565b15610746577fbdf8e8154212732e32053db049accdd4ff27639d7028ecf127e2353161b994bf60045460405161073d91815260200190565b60405180910390a15b565b600380546102e0906108f5565b60008160405160200161076891906109f0565b604051602081830303815290604052805190602001208360405160200161078f91906109f0565b6040516020818303038152906040528051906020012014905092915050565b6000601e6107bf6201518042610a22565b6107c99190610a36565b6107d490600161092f565b905090565b600061016d6107eb6201518042610a22565b6107d49190610a22565b60006107ff6107ae565b9050600954811115610821576009819055600090815260076020526040902055565b6000818152600760205260408120805484929061083f90849061092f565b90915550505050565b60006108526107d9565b9050600a5481111561087457600a819055600090815260086020526040902055565b6000818152600860205260408120805484929061083f90849061092f565b60005b838110156108ad578181015183820152602001610895565b838111156108bc576000848401525b50505050565b60208152600082518060208401526108e1816040850160208701610892565b601f01601f19169190910160400192915050565b600181811c9082168061090957607f821691505b60208210810361092957634e487b7160e01b600052602260045260246000fd5b50919050565b6000821982111561095057634e487b7160e01b600052601160045260246000fd5b500190565b600080835481600182811c91508083168061097157607f831692505b6020808410820361099057634e487b7160e01b86526022600452602486fd5b8180156109a457600181146109b5576109e2565b60ff198616895284890196506109e2565b60008a81526020902060005b868110156109da5781548b8201529085019083016109c1565b505084890196505b509498975050505050505050565b60008251610a02818460208701610892565b9190910192915050565b634e487b7160e01b600052601260045260246000fd5b600082610a3157610a31610a0c565b500490565b600082610a4557610a45610a0c565b50069056fea26469706673582212207ea723f12ca52744c1db28fb56d7bf363b43a549bef0a1d240564f6253adeffe64736f6c634300080d003368747470733a2f2f6769746875622e636f6d2f6f646473646b2f66756e6472696e672e676974",
    "linkReferences": {}
  },
  "methodIdentifiers": {
    "contributeFunds()": "c061db4d",
    "fundingFrequency()": "fa37c270",
    "fundingGoal()": "7a3a0e84",
    "getFundingFrequency()": "55f92754",
    "getTotalFundsRaised()": "0c3e2d2d",
    "githubRepoLink()": "33d8812a",
    "isFundingComplete()": "9b01d0c3",
    "projectName()": "9a33e300",
    "projectOwner()": "a4475ce4",
    "totalFundsRaised()": "427c0c7f",
    "withdrawFunds()": "24600fc3"
  },
  "id": 0
}